:100000000428FF3FFF3FFF3F03138316860183123F
:100010008601013086000230CC00FF30CB00FF307B
:10002000CA00CC0B14281B28CB0B17281A28CA0B84
:100030001728142811281F30CB00FF30CA00CB0B23
:1000400022282528CA0B22281F28F330CA00CA0BF1
:1000500027280000023086000230CC00FF30CB00A1
:10006000FF30CA00CC0B35283C28CB0B38283B2866
:10007000CA0B3828352832281F30CB00FF30CA0081
:10008000CB0B43284628CA0B43284028F330CA002C
:10009000CA0B48280000043086000230CC00FF3034
:1000A000CB00FF30CA00CC0B56285D28CB0B59285B
:1000B0005C28CA0B5928562853281F30CB00FF3024
:1000C000CA00CB0B64286728CA0B64286128F33068
:1000D000CA00CA0B69280000083086000230CC0034
:1000E000FF30CB00FF30CA00CC0B77287E28CB0B2B
:1000F0007A287D28CA0B7A28772874281F30CB00ED
:10010000FF30CA00CB0B85288828CA0B8528822897
:10011000F330CA00CA0B8A28000080308600023003
:10012000CC00FF30CB00FF30CA00CC0B98289F28B2
:10013000CB0B9B289E28CA0B9B28982895281F30FC
:10014000CB00FF30CA00CB0BA628A928CA0BA628D3
:10015000A328F330CA00CA0BAB2800004030860049
:100160000230CC00FF30CB00FF30CA00CC0BB928E6
:10017000C028CB0BBC28BF28CA0BBC28B928B6287E
:100180001F30CB00FF30CA00CB0BC728CA28CA0BD0
:10019000C728C428F330CA00CA0BCC28000020307E
:1001A00086000230CC00FF30CB00FF30CA00CC0B01
:1001B000DA28E128CB0BDD28E028CA0BDD28DA2875
:1001C000D7281F30CB00FF30CA00CB0BE828EB2824
:1001D000CA0BE828E528F330CA00CA0BED28000056
:1001E000103086000230CC00FF30CB00FF30CA0058
:1001F000CC0BFB280229CB0BFE280129CA0BFE28B9
:10020000FB28F8281F30CB00FF30CA00CB0B092990
:100210000C29CA0B09290629F330CA00CA0B0E297A
:10022000000009281229FF3FFF3FFF3FFF3FFF3F2C
:02400E00FD3F74
:00000001FF
